{
  "contractName": "BambooCrowdFund",
  "abi": [
    {
      "inputs": [
        {
          "internalType": "address",
          "name": "_token",
          "type": "address"
        },
        {
          "internalType": "uint256",
          "name": "_maxDuration",
          "type": "uint256"
        }
      ],
      "stateMutability": "nonpayable",
      "type": "constructor"
    },
    {
      "anonymous": false,
      "inputs": [
        {
          "indexed": false,
          "internalType": "uint256",
          "name": "id",
          "type": "uint256"
        }
      ],
      "name": "Cancel",
      "type": "event"
    },
    {
      "anonymous": false,
      "inputs": [
        {
          "indexed": false,
          "internalType": "uint256",
          "name": "id",
          "type": "uint256"
        }
      ],
      "name": "Claim",
      "type": "event"
    },
    {
      "anonymous": false,
      "inputs": [
        {
          "indexed": false,
          "internalType": "uint256",
          "name": "id",
          "type": "uint256"
        },
        {
          "indexed": true,
          "internalType": "address",
          "name": "creator",
          "type": "address"
        },
        {
          "indexed": false,
          "internalType": "uint256",
          "name": "goal",
          "type": "uint256"
        }
      ],
      "name": "Launch",
      "type": "event"
    },
    {
      "anonymous": false,
      "inputs": [
        {
          "indexed": true,
          "internalType": "uint256",
          "name": "id",
          "type": "uint256"
        },
        {
          "indexed": true,
          "internalType": "address",
          "name": "caller",
          "type": "address"
        },
        {
          "indexed": false,
          "internalType": "uint256",
          "name": "amount",
          "type": "uint256"
        }
      ],
      "name": "Pledge",
      "type": "event"
    },
    {
      "anonymous": false,
      "inputs": [
        {
          "indexed": false,
          "internalType": "uint256",
          "name": "id",
          "type": "uint256"
        },
        {
          "indexed": true,
          "internalType": "address",
          "name": "caller",
          "type": "address"
        },
        {
          "indexed": false,
          "internalType": "uint256",
          "name": "amount",
          "type": "uint256"
        }
      ],
      "name": "Refund",
      "type": "event"
    },
    {
      "anonymous": false,
      "inputs": [
        {
          "indexed": true,
          "internalType": "uint256",
          "name": "id",
          "type": "uint256"
        },
        {
          "indexed": true,
          "internalType": "address",
          "name": "caller",
          "type": "address"
        },
        {
          "indexed": false,
          "internalType": "uint256",
          "name": "amount",
          "type": "uint256"
        }
      ],
      "name": "Unpledge",
      "type": "event"
    },
    {
      "inputs": [
        {
          "internalType": "uint256",
          "name": "",
          "type": "uint256"
        }
      ],
      "name": "campaigns",
      "outputs": [
        {
          "internalType": "address",
          "name": "creator",
          "type": "address"
        },
        {
          "internalType": "uint256",
          "name": "goal",
          "type": "uint256"
        },
        {
          "internalType": "uint256",
          "name": "pledged",
          "type": "uint256"
        },
        {
          "internalType": "bool",
          "name": "claimed",
          "type": "bool"
        }
      ],
      "stateMutability": "view",
      "type": "function"
    },
    {
      "inputs": [],
      "name": "count",
      "outputs": [
        {
          "internalType": "uint256",
          "name": "",
          "type": "uint256"
        }
      ],
      "stateMutability": "view",
      "type": "function"
    },
    {
      "inputs": [],
      "name": "maxDuration",
      "outputs": [
        {
          "internalType": "uint256",
          "name": "",
          "type": "uint256"
        }
      ],
      "stateMutability": "view",
      "type": "function"
    },
    {
      "inputs": [
        {
          "internalType": "uint256",
          "name": "",
          "type": "uint256"
        },
        {
          "internalType": "address",
          "name": "",
          "type": "address"
        }
      ],
      "name": "pledgedAmount",
      "outputs": [
        {
          "internalType": "uint256",
          "name": "",
          "type": "uint256"
        }
      ],
      "stateMutability": "view",
      "type": "function"
    },
    {
      "inputs": [],
      "name": "token",
      "outputs": [
        {
          "internalType": "contract IERC20",
          "name": "",
          "type": "address"
        }
      ],
      "stateMutability": "view",
      "type": "function"
    },
    {
      "inputs": [
        {
          "internalType": "uint256",
          "name": "_goal",
          "type": "uint256"
        }
      ],
      "name": "launch",
      "outputs": [],
      "stateMutability": "nonpayable",
      "type": "function"
    },
    {
      "inputs": [
        {
          "internalType": "uint256",
          "name": "_id",
          "type": "uint256"
        }
      ],
      "name": "cancel",
      "outputs": [],
      "stateMutability": "nonpayable",
      "type": "function"
    },
    {
      "inputs": [
        {
          "internalType": "uint256",
          "name": "_id",
          "type": "uint256"
        },
        {
          "internalType": "uint256",
          "name": "_amount",
          "type": "uint256"
        }
      ],
      "name": "pledge",
      "outputs": [],
      "stateMutability": "nonpayable",
      "type": "function"
    },
    {
      "inputs": [
        {
          "internalType": "uint256",
          "name": "_id",
          "type": "uint256"
        },
        {
          "internalType": "uint256",
          "name": "_amount",
          "type": "uint256"
        }
      ],
      "name": "unPledge",
      "outputs": [],
      "stateMutability": "nonpayable",
      "type": "function"
    },
    {
      "inputs": [
        {
          "internalType": "uint256",
          "name": "_id",
          "type": "uint256"
        }
      ],
      "name": "claim",
      "outputs": [],
      "stateMutability": "nonpayable",
      "type": "function"
    },
    {
      "inputs": [
        {
          "internalType": "uint256",
          "name": "_id",
          "type": "uint256"
        }
      ],
      "name": "refund",
      "outputs": [],
      "stateMutability": "nonpayable",
      "type": "function"
    }
  ],
  "bytecode": "0x60a06040523480156200001157600080fd5b50604051620016983803806200169883398181016040528101906200003791906200011f565b8173ffffffffffffffffffffffffffffffffffffffff1660808173ffffffffffffffffffffffffffffffffffffffff168152505080600181905550505062000166565b600080fd5b600073ffffffffffffffffffffffffffffffffffffffff82169050919050565b6000620000ac826200007f565b9050919050565b620000be816200009f565b8114620000ca57600080fd5b50565b600081519050620000de81620000b3565b92915050565b6000819050919050565b620000f981620000e4565b81146200010557600080fd5b50565b6000815190506200011981620000ee565b92915050565b600080604083850312156200013957620001386200007a565b5b60006200014985828601620000cd565b92505060206200015c8582860162000108565b9150509250929050565b6080516114fa6200019e600039600081816104140152818161066b01528181610b8f01528181610ca70152610d6401526114fa6000f3fe608060405234801561001057600080fd5b50600436106100a95760003560e01c80636db5c8fd116100715780636db5c8fd1461015357806385b12c7c14610171578063a3a0e9361461018d578063aa4fb63a146101a9578063fc0c546a146101d9578063fde327be146101f7576100a9565b806306661abd146100ae578063141961bc146100cc578063278ecde1146100ff578063379607f51461011b57806340e58ee514610137575b600080fd5b6100b6610213565b6040516100c39190610e70565b60405180910390f35b6100e660048036038101906100e19190610ebc565b610219565b6040516100f69493929190610f45565b60405180910390f35b61011960048036038101906101149190610ebc565b610276565b005b61013560048036038101906101309190610ebc565b610506565b005b610151600480360381019061014c9190610ebc565b61076b565b005b61015b610920565b6040516101689190610e70565b60405180910390f35b61018b60048036038101906101869190610ebc565b610926565b005b6101a760048036038101906101a29190610f8a565b610a61565b005b6101c360048036038101906101be9190610ff6565b610c80565b6040516101d09190610e70565b60405180910390f35b6101e1610ca5565b6040516101ee9190611095565b60405180910390f35b610211600480360381019061020c9190610f8a565b610cc9565b005b60005481565b60026020528060005260406000206000915090508060000160009054906101000a900473ffffffffffffffffffffffffffffffffffffffff16908060010154908060020154908060030160009054906101000a900460ff16905084565b6000600260008381526020019081526020016000206040518060800160405290816000820160009054906101000a900473ffffffffffffffffffffffffffffffffffffffff1673ffffffffffffffffffffffffffffffffffffffff1673ffffffffffffffffffffffffffffffffffffffff16815260200160018201548152602001600282015481526020016003820160009054906101000a900460ff16151515158152505090508060200151816040015110610367576040517f08c379a000000000000000000000000000000000000000000000000000000000815260040161035e90611133565b60405180910390fd5b60006003600084815260200190815260200160002060003373ffffffffffffffffffffffffffffffffffffffff1673ffffffffffffffffffffffffffffffffffffffff16815260200190815260200160002054905060006003600085815260200190815260200160002060003373ffffffffffffffffffffffffffffffffffffffff1673ffffffffffffffffffffffffffffffffffffffff168152602001908152602001600020819055507f000000000000000000000000000000000000000000000000000000000000000073ffffffffffffffffffffffffffffffffffffffff1663a9059cbb33836040518363ffffffff1660e01b815260040161046d929190611153565b6020604051808303816000875af115801561048c573d6000803e3d6000fd5b505050506040513d601f19601f820116820180604052508101906104b091906111a8565b503373ffffffffffffffffffffffffffffffffffffffff167f21e12a7cad0da5928167e1084ea4d5fdf8d9af66657a2543a9ac76a0ca08147784836040516104f99291906111d5565b60405180910390a2505050565b60006002600083815260200190815260200160002090503373ffffffffffffffffffffffffffffffffffffffff168160000160009054906101000a900473ffffffffffffffffffffffffffffffffffffffff1673ffffffffffffffffffffffffffffffffffffffff16146105af576040517f08c379a00000000000000000000000000000000000000000000000000000000081526004016105a69061124a565b60405180910390fd5b8060010154816002015410156105fa576040517f08c379a00000000000000000000000000000000000000000000000000000000081526004016105f1906112b6565b60405180910390fd5b8060030160009054906101000a900460ff161561064c576040517f08c379a000000000000000000000000000000000000000000000000000000000815260040161064390611322565b60405180910390fd5b60018160030160006101000a81548160ff0219169083151502179055507f000000000000000000000000000000000000000000000000000000000000000073ffffffffffffffffffffffffffffffffffffffff1663a9059cbb8260000160009054906101000a900473ffffffffffffffffffffffffffffffffffffffff1683600201546040518363ffffffff1660e01b81526004016106ec929190611153565b6020604051808303816000875af115801561070b573d6000803e3d6000fd5b505050506040513d601f19601f8201168201806040525081019061072f91906111a8565b507f7bb2b3c10797baccb6f8c4791f1edd6ca2f0d028ee0eda64b01a9a57e3a653f78260405161075f9190610e70565b60405180910390a15050565b6000600260008381526020019081526020016000206040518060800160405290816000820160009054906101000a900473ffffffffffffffffffffffffffffffffffffffff1673ffffffffffffffffffffffffffffffffffffffff1673ffffffffffffffffffffffffffffffffffffffff16815260200160018201548152602001600282015481526020016003820160009054906101000a900460ff16151515158152505090503373ffffffffffffffffffffffffffffffffffffffff16816000015173ffffffffffffffffffffffffffffffffffffffff1614610884576040517f08c379a000000000000000000000000000000000000000000000000000000000815260040161087b9061124a565b60405180910390fd5b60026000838152602001908152602001600020600080820160006101000a81549073ffffffffffffffffffffffffffffffffffffffff0219169055600182016000905560028201600090556003820160006101000a81549060ff021916905550507f8bf30e7ff26833413be5f69e1d373744864d600b664204b4a2f9844a8eedb9ed826040516109149190610e70565b60405180910390a15050565b60015481565b60016000808282546109389190611371565b9250508190555060405180608001604052803373ffffffffffffffffffffffffffffffffffffffff1681526020018281526020016000815260200160001515815250600260008054815260200190815260200160002060008201518160000160006101000a81548173ffffffffffffffffffffffffffffffffffffffff021916908373ffffffffffffffffffffffffffffffffffffffff160217905550602082015181600101556040820151816002015560608201518160030160006101000a81548160ff0219169083151502179055509050503373ffffffffffffffffffffffffffffffffffffffff167fbee4ed2238577047373d7cf3657cd0beea1dd6b7aa6a361a6ba5a93701ccf8b260005483604051610a569291906111d5565b60405180910390a250565b6000600260008481526020019081526020016000209050816003600085815260200190815260200160002060003373ffffffffffffffffffffffffffffffffffffffff1673ffffffffffffffffffffffffffffffffffffffff168152602001908152602001600020541015610b0b576040517f08c379a0000000000000000000000000000000000000000000000000000000008152600401610b0290611439565b60405180910390fd5b81816002016000828254610b1f9190611459565b92505081905550816003600085815260200190815260200160002060003373ffffffffffffffffffffffffffffffffffffffff1673ffffffffffffffffffffffffffffffffffffffff1681526020019081526020016000206000828254610b869190611459565b925050819055507f000000000000000000000000000000000000000000000000000000000000000073ffffffffffffffffffffffffffffffffffffffff1663a9059cbb33846040518363ffffffff1660e01b8152600401610be8929190611153565b6020604051808303816000875af1158015610c07573d6000803e3d6000fd5b505050506040513d601f19601f82011682018060405250810190610c2b91906111a8565b503373ffffffffffffffffffffffffffffffffffffffff16837f2eeeab891b26a214d1b25749f88a406bdea852bd8c9bfda977e0ef8114c180ba84604051610c739190610e70565b60405180910390a3505050565b6003602052816000526040600020602052806000526040600020600091509150505481565b7f000000000000000000000000000000000000000000000000000000000000000081565b600060026000848152602001908152602001600020905081816002016000828254610cf49190611371565b92505081905550816003600085815260200190815260200160002060003373ffffffffffffffffffffffffffffffffffffffff1673ffffffffffffffffffffffffffffffffffffffff1681526020019081526020016000206000828254610d5b9190611371565b925050819055507f000000000000000000000000000000000000000000000000000000000000000073ffffffffffffffffffffffffffffffffffffffff166323b872dd3330856040518463ffffffff1660e01b8152600401610dbf9392919061148d565b6020604051808303816000875af1158015610dde573d6000803e3d6000fd5b505050506040513d601f19601f82011682018060405250810190610e0291906111a8565b503373ffffffffffffffffffffffffffffffffffffffff16837f06bdb975df800a73232998e71ed585d536222f1dfeaa622d7f62a23ada686c8284604051610e4a9190610e70565b60405180910390a3505050565b6000819050919050565b610e6a81610e57565b82525050565b6000602082019050610e856000830184610e61565b92915050565b600080fd5b610e9981610e57565b8114610ea457600080fd5b50565b600081359050610eb681610e90565b92915050565b600060208284031215610ed257610ed1610e8b565b5b6000610ee084828501610ea7565b91505092915050565b600073ffffffffffffffffffffffffffffffffffffffff82169050919050565b6000610f1482610ee9565b9050919050565b610f2481610f09565b82525050565b60008115159050919050565b610f3f81610f2a565b82525050565b6000608082019050610f5a6000830187610f1b565b610f676020830186610e61565b610f746040830185610e61565b610f816060830184610f36565b95945050505050565b60008060408385031215610fa157610fa0610e8b565b5b6000610faf85828601610ea7565b9250506020610fc085828601610ea7565b9150509250929050565b610fd381610f09565b8114610fde57600080fd5b50565b600081359050610ff081610fca565b92915050565b6000806040838503121561100d5761100c610e8b565b5b600061101b85828601610ea7565b925050602061102c85828601610fe1565b9150509250929050565b6000819050919050565b600061105b61105661105184610ee9565b611036565b610ee9565b9050919050565b600061106d82611040565b9050919050565b600061107f82611062565b9050919050565b61108f81611074565b82525050565b60006020820190506110aa6000830184611086565b92915050565b600082825260208201905092915050565b7f596f752063616e6e6f742057697468647261772c2043616d706169676e20686160008201527f7320737563636565646564000000000000000000000000000000000000000000602082015250565b600061111d602b836110b0565b9150611128826110c1565b604082019050919050565b6000602082019050818103600083015261114c81611110565b9050919050565b60006040820190506111686000830185610f1b565b6111756020830184610e61565b9392505050565b61118581610f2a565b811461119057600080fd5b50565b6000815190506111a28161117c565b92915050565b6000602082840312156111be576111bd610e8b565b5b60006111cc84828501611193565b91505092915050565b60006040820190506111ea6000830185610e61565b6111f76020830184610e61565b9392505050565b7f596f7520646964206e6f742063726561746520746869732043616d706169676e600082015250565b60006112346020836110b0565b915061123f826111fe565b602082019050919050565b6000602082019050818103600083015261126381611227565b9050919050565b7f43616d706169676e20646964206e6f7420737563636564000000000000000000600082015250565b60006112a06017836110b0565b91506112ab8261126a565b602082019050919050565b600060208201905081810360008301526112cf81611293565b9050919050565b7f636c61696d656400000000000000000000000000000000000000000000000000600082015250565b600061130c6007836110b0565b9150611317826112d6565b602082019050919050565b6000602082019050818103600083015261133b816112ff565b9050919050565b7f4e487b7100000000000000000000000000000000000000000000000000000000600052601160045260246000fd5b600061137c82610e57565b915061138783610e57565b9250827fffffffffffffffffffffffffffffffffffffffffffffffffffffffffffffffff038211156113bc576113bb611342565b5b828201905092915050565b7f596f7520646f206e6f74206861766520656e6f75676820746f6b656e7320506c60008201527f656467656420746f207769746872617700000000000000000000000000000000602082015250565b60006114236030836110b0565b915061142e826113c7565b604082019050919050565b6000602082019050818103600083015261145281611416565b9050919050565b600061146482610e57565b915061146f83610e57565b92508282101561148257611481611342565b5b828203905092915050565b60006060820190506114a26000830186610f1b565b6114af6020830185610f1b565b6114bc6040830184610e61565b94935050505056fea26469706673582212200d92444757d7fabe1e7337739af636f6bc65d7f140bc47ba78358a56f957ff4964736f6c634300080e0033",
  "immutableReferences": {
    "2256": [
      {
        "length": 32,
        "start": 1044
      },
      {
        "length": 32,
        "start": 1643
      },
      {
        "length": 32,
        "start": 2959
      },
      {
        "length": 32,
        "start": 3239
      },
      {
        "length": 32,
        "start": 3428
      }
    ]
  },
  "source": "// SPDX-License-Identifier: MIT\npragma solidity >=0.4.22 <0.9.0;\n\ninterface IERC20 {\n    function transfer(address, uint) external returns (bool);\n\n    function transferFrom(\n        address,\n        address,\n        uint\n    ) external returns (bool);\n}\n\n\n    /** \n    * @title CrowdFund Smart Contract\n    * @author Vedant Chainani\n    */\n\ncontract BambooCrowdFund {\n    struct Campaign {\n        address creator;\n        uint goal;\n        uint pledged;\n        \n        \n        bool claimed;\n    }\n\n    IERC20 public immutable token;\n    uint public count;\n    uint public maxDuration;\n    mapping(uint => Campaign) public campaigns;\n    mapping(uint => mapping(address => uint)) public pledgedAmount;\n\n    event Launch(\n        uint id,\n        address indexed creator,\n        uint goal\n        \n    );\n    event Cancel(uint id);\n    event Pledge(uint indexed id, address indexed caller, uint amount);\n    event Unpledge(uint indexed id, address indexed caller, uint amount);\n    event Claim(uint id);\n    event Refund(uint id, address indexed caller, uint amount);\n\n    constructor(address _token, uint _maxDuration) {\n        token = IERC20(_token);\n        maxDuration = _maxDuration;\n    }\n\n    function launch(uint _goal) external {\n       \n\n        count += 1;\n        campaigns[count] = Campaign({\n            creator: msg.sender,\n            goal: _goal,\n            pledged: 0,\n            \n            claimed: false\n        });\n\n        emit Launch(count,msg.sender,_goal);\n    }\n\n    function cancel(uint _id) external {\n        Campaign memory campaign = campaigns[_id];\n        require(campaign.creator == msg.sender, \"You did not create this Campaign\");\n        \n\n        delete campaigns[_id];\n        emit Cancel(_id);\n    }\n\n    function pledge(uint _id, uint _amount) external {\n        Campaign storage campaign = campaigns[_id];\n       \n        campaign.pledged += _amount;\n        pledgedAmount[_id][msg.sender] += _amount;\n        token.transferFrom(msg.sender, address(this), _amount);\n\n        emit Pledge(_id, msg.sender, _amount);\n    }\n\n    function unPledge(uint _id,uint _amount) external {\n        Campaign storage campaign = campaigns[_id];\n        \n        require(pledgedAmount[_id][msg.sender] >= _amount,\"You do not have enough tokens Pledged to withraw\");\n\n        campaign.pledged -= _amount;\n        pledgedAmount[_id][msg.sender] -= _amount;\n        token.transfer(msg.sender, _amount);\n\n        emit Unpledge(_id, msg.sender, _amount);\n    }\n\n    function claim(uint _id) external {\n        Campaign storage campaign = campaigns[_id];\n        require(campaign.creator == msg.sender, \"You did not create this Campaign\");\n        \n        require(campaign.pledged >= campaign.goal, \"Campaign did not succed\");\n        require(!campaign.claimed, \"claimed\");\n\n        campaign.claimed = true;\n        token.transfer(campaign.creator, campaign.pledged);\n\n        emit Claim(_id);\n    }\n\n    function refund(uint _id) external {\n        Campaign memory campaign = campaigns[_id];\n      \n        require(campaign.pledged < campaign.goal, \"You cannot Withdraw, Campaign has succeeded\");\n\n        uint bal = pledgedAmount[_id][msg.sender];\n        pledgedAmount[_id][msg.sender] = 0;\n        token.transfer(msg.sender, bal);\n\n        emit Refund(_id, msg.sender, bal);\n    }\n\n\n}\n",
  "sourcePath": "C:\\Users\\Zoe\\Downloads\\Genebeans\\BambooTest\\contracts\\BambooTestCrowdfund.sol",
  "compiler": {
    "name": "solc",
    "version": "0.8.14+commit.80d49f37.Emscripten.clang"
  },
  "schemaVersion": "3.4.7",
  "updatedAt": "2023-01-10T21:06:49.022Z",
  "devdoc": {
    "author": "Vedant Chainani",
    "kind": "dev",
    "methods": {},
    "title": "CrowdFund Smart Contract",
    "version": 1
  },
  "userdoc": {
    "kind": "user",
    "methods": {},
    "version": 1
  }
}